{
  "contractName": "Lottery",
  "abi": [
    {
      "inputs": [],
      "name": "count",
      "outputs": [
        {
          "internalType": "uint256",
          "name": "",
          "type": "uint256"
        }
      ],
      "stateMutability": "view",
      "type": "function",
      "constant": true
    },
    {
      "inputs": [],
      "name": "first",
      "outputs": [
        {
          "internalType": "address",
          "name": "",
          "type": "address"
        }
      ],
      "stateMutability": "view",
      "type": "function",
      "constant": true
    },
    {
      "inputs": [],
      "name": "lotteryId",
      "outputs": [
        {
          "internalType": "uint256",
          "name": "",
          "type": "uint256"
        }
      ],
      "stateMutability": "view",
      "type": "function",
      "constant": true
    },
    {
      "inputs": [
        {
          "internalType": "uint256",
          "name": "",
          "type": "uint256"
        }
      ],
      "name": "perticipants",
      "outputs": [
        {
          "internalType": "address",
          "name": "",
          "type": "address"
        }
      ],
      "stateMutability": "view",
      "type": "function",
      "constant": true
    },
    {
      "stateMutability": "payable",
      "type": "receive",
      "payable": true
    },
    {
      "inputs": [],
      "name": "buy",
      "outputs": [],
      "stateMutability": "payable",
      "type": "function",
      "payable": true
    }
  ],
  "bytecode": "0x608060405234801561001057600080fd5b506106d5806100206000396000f3fe60806040526004361061004e5760003560e01c806306661abd1461005a5780633df4ddf414610085578063a09ab437146100b0578063a6f2ae3a146100ed578063e580f47b146100f757610055565b3661005557005b600080fd5b34801561006657600080fd5b5061006f610122565b60405161007c9190610466565b60405180910390f35b34801561009157600080fd5b5061009a610128565b6040516100a791906104c2565b60405180910390f35b3480156100bc57600080fd5b506100d760048036038101906100d2919061050e565b61014e565b6040516100e491906104c2565b60405180910390f35b6100f5610184565b005b34801561010357600080fd5b5061010c610252565b6040516101199190610466565b60405180910390f35b60015481565b600c60009054906101000a900473ffffffffffffffffffffffffffffffffffffffff1681565b600281600a811061015e57600080fd5b016000915054906101000a900473ffffffffffffffffffffffffffffffffffffffff1681565b670de0b6b3a7640000341461019857600080fd5b6000600154905033600282806101ad9061056a565b9350600a81106101c0576101bf6105b2565b5b0160006101000a81548173ffffffffffffffffffffffffffffffffffffffff021916908373ffffffffffffffffffffffffffffffffffffffff16021790555080600181905550600a810361024f57610216610258565b6000600181905550610226610390565b80600290600a6102379291906103b3565b5060008081546102469061056a565b91905081905550505b50565b60005481565b6000600a61026461035a565b61026e9190610610565b9050600281600a8110610284576102836105b2565b5b0160009054906101000a900473ffffffffffffffffffffffffffffffffffffffff16600c60006101000a81548173ffffffffffffffffffffffffffffffffffffffff021916908373ffffffffffffffffffffffffffffffffffffffff160217905550600c60009054906101000a900473ffffffffffffffffffffffffffffffffffffffff1673ffffffffffffffffffffffffffffffffffffffff166108fc678ac7230489e800009081150290604051600060405180830381858888f19350505050158015610356573d6000803e3d6000fd5b5050565b60004442600a60405160200161037293929190610662565b6040516020818303038152906040528051906020012060001c905090565b604051806101400160405280600a90602082028036833780820191505090505090565b82600a810192821561041f579160200282015b8281111561041e5782518260006101000a81548173ffffffffffffffffffffffffffffffffffffffff021916908373ffffffffffffffffffffffffffffffffffffffff160217905550916020019190600101906103c6565b5b50905061042c9190610430565b5090565b5b80821115610449576000816000905550600101610431565b5090565b6000819050919050565b6104608161044d565b82525050565b600060208201905061047b6000830184610457565b92915050565b600073ffffffffffffffffffffffffffffffffffffffff82169050919050565b60006104ac82610481565b9050919050565b6104bc816104a1565b82525050565b60006020820190506104d760008301846104b3565b92915050565b600080fd5b6104eb8161044d565b81146104f657600080fd5b50565b600081359050610508816104e2565b92915050565b600060208284031215610524576105236104dd565b5b6000610532848285016104f9565b91505092915050565b7f4e487b7100000000000000000000000000000000000000000000000000000000600052601160045260246000fd5b60006105758261044d565b91507fffffffffffffffffffffffffffffffffffffffffffffffffffffffffffffffff82036105a7576105a661053b565b5b600182019050919050565b7f4e487b7100000000000000000000000000000000000000000000000000000000600052603260045260246000fd5b7f4e487b7100000000000000000000000000000000000000000000000000000000600052601260045260246000fd5b600061061b8261044d565b91506106268361044d565b925082610636576106356105e1565b5b828206905092915050565b6000819050919050565b61065c6106578261044d565b610641565b82525050565b600061066e828661064b565b60208201915061067e828561064b565b60208201915061068e828461064b565b60208201915081905094935050505056fea264697066735822122072d6d576ee8ea4968ac247afa6e3d0683605df47de1176f89bf1ad4346d92e3b64736f6c63430008130033",
  "immutableReferences": {},
  "source": "// SPDX-License-Identifier: MIT\npragma solidity >=0.4.22 <0.9.0;\n\ncontract Lottery{\n  uint public lotteryId;\n  uint public count;\n  address[10] public perticipants;\n  address public first;\n\n  \n  receive()external payable{}\n  function random()private view returns(uint){\n      return uint(keccak256(abi.encodePacked(block.prevrandao,block.timestamp,perticipants.length))); \n    }\n  function winner()private{\n    uint a=random()%10;\n    first=perticipants[a];\n    payable(first).transfer(10 ether);\n  }\n  function buy()external payable{\n    \n    require(msg.value==1 ether);\n    uint t=count;\n    perticipants[t++]=msg.sender;\n    count=t;\n    if(t==10){\n        winner();\n    count=0;\n    address[10] memory add;\n    perticipants=add;\n    ++lotteryId;\n  }\n  }\n\n}",
  "sourcePath": "/home/satya/Desktop/HeLl0/DAPP/dapp3/contracts/SimpleStorage.sol",
  "compiler": {
    "name": "solc",
    "version": "0.8.19+commit.7dd6d404.Emscripten.clang"
  },
  "schemaVersion": "3.4.13",
  "updatedAt": "2023-04-25T19:17:10.067Z",
  "networkType": "ethereum",
  "devdoc": {
    "kind": "dev",
    "methods": {},
    "version": 1
  },
  "userdoc": {
    "kind": "user",
    "methods": {},
    "version": 1
  }
}